{
  "contractName": "math",
  "abi": [
    {
      "inputs": [
        {
          "internalType": "uint256",
          "name": "a",
          "type": "uint256"
        },
        {
          "internalType": "uint256",
          "name": "b",
          "type": "uint256"
        }
      ],
      "name": "plus",
      "outputs": [
        {
          "internalType": "uint256",
          "name": "",
          "type": "uint256"
        }
      ],
      "stateMutability": "pure",
      "type": "function",
      "constant": true
    },
    {
      "inputs": [
        {
          "internalType": "uint256",
          "name": "a",
          "type": "uint256"
        },
        {
          "internalType": "uint256",
          "name": "b",
          "type": "uint256"
        }
      ],
      "name": "minus",
      "outputs": [
        {
          "internalType": "uint256",
          "name": "",
          "type": "uint256"
        }
      ],
      "stateMutability": "pure",
      "type": "function",
      "constant": true
    },
    {
      "inputs": [
        {
          "internalType": "uint256",
          "name": "a",
          "type": "uint256"
        }
      ],
      "name": "stateChangePlus",
      "outputs": [
        {
          "internalType": "uint256",
          "name": "",
          "type": "uint256"
        }
      ],
      "stateMutability": "nonpayable",
      "type": "function"
    }
  ],
  "bytecode": "0x608060405234801561001057600080fd5b506102c5806100206000396000f3fe608060405234801561001057600080fd5b50600436106100415760003560e01c806366098d4f1461004657806395e4207b14610076578063f4f3bdc1146100a6575b600080fd5b610060600480360381019061005b9190610161565b6100d6565b60405161006d91906101b0565b60405180910390f35b610090600480360381019061008b91906101cb565b6100ec565b60405161009d91906101b0565b60405180910390f35b6100c060048036038101906100bb9190610161565b610110565b6040516100cd91906101b0565b60405180910390f35b600081836100e49190610227565b905092915050565b6000816000808282546100ff9190610227565b925050819055506000549050919050565b6000818361011e919061025b565b905092915050565b600080fd5b6000819050919050565b61013e8161012b565b811461014957600080fd5b50565b60008135905061015b81610135565b92915050565b6000806040838503121561017857610177610126565b5b60006101868582860161014c565b92505060206101978582860161014c565b9150509250929050565b6101aa8161012b565b82525050565b60006020820190506101c560008301846101a1565b92915050565b6000602082840312156101e1576101e0610126565b5b60006101ef8482850161014c565b91505092915050565b7f4e487b7100000000000000000000000000000000000000000000000000000000600052601160045260246000fd5b60006102328261012b565b915061023d8361012b565b9250828201905080821115610255576102546101f8565b5b92915050565b60006102668261012b565b91506102718361012b565b9250828203905081811115610289576102886101f8565b5b9291505056fea2646970667358221220153009766944d06f312fe5a1caeea21a84c51ea6ea0d9e2dd5327cefe8dfd98e64736f6c63430008120033",
  "immutableReferences": {},
  "source": "// SPDX-License-Identifier: MIT\r\npragma solidity >=0.4.22 <0.9.0;\r\n\r\ncontract math{\r\n    \r\n    function plus(uint a,uint b)public pure returns(uint){\r\n        return a+b;\r\n    }\r\n\r\n    function minus(uint a,uint b)public pure returns(uint){\r\n        return a-b;\r\n    }\r\n    uint state;\r\n    function stateChangePlus(uint a)public returns(uint){\r\n        state+=a;\r\n        return state;\r\n    }\r\n\r\n}",
  "sourcePath": "C:\\Users\\7anly\\OneDrive\\ \\\\reactBox\\truffle\\contracts\\Math.sol",
  "compiler": {
    "name": "solc",
    "version": "0.8.18+commit.87f61d96.Emscripten.clang"
  },
  "schemaVersion": "3.4.10",
  "updatedAt": "2023-03-01T05:21:48.573Z",
  "networkType": "ethereum",
  "devdoc": {
    "kind": "dev",
    "methods": {},
    "version": 1
  },
  "userdoc": {
    "kind": "user",
    "methods": {},
    "version": 1
  }
}